{
  "_format": "hh-sol-artifact-1",
  "contractName": "CrowdFunding",
  "sourceName": "contracts/CrowdFunding.sol",
  "abi": [
    {
      "inputs": [
        {
          "internalType": "uint256",
          "name": "_target",
          "type": "uint256"
        },
        {
          "internalType": "uint256",
          "name": "_deadline",
          "type": "uint256"
        }
      ],
      "stateMutability": "nonpayable",
      "type": "constructor"
    },
    {
      "inputs": [],
      "name": "amountRaised",
      "outputs": [
        {
          "internalType": "uint256",
          "name": "",
          "type": "uint256"
        }
      ],
      "stateMutability": "view",
      "type": "function"
    },
    {
      "inputs": [],
      "name": "contribution",
      "outputs": [],
      "stateMutability": "payable",
      "type": "function"
    },
    {
      "inputs": [
        {
          "internalType": "address",
          "name": "",
          "type": "address"
        }
      ],
      "name": "contributors",
      "outputs": [
        {
          "internalType": "uint256",
          "name": "",
          "type": "uint256"
        }
      ],
      "stateMutability": "view",
      "type": "function"
    },
    {
      "inputs": [
        {
          "internalType": "string",
          "name": "_description",
          "type": "string"
        },
        {
          "internalType": "address payable",
          "name": "_recipient",
          "type": "address"
        },
        {
          "internalType": "uint256",
          "name": "_value",
          "type": "uint256"
        }
      ],
      "name": "createRequest",
      "outputs": [],
      "stateMutability": "nonpayable",
      "type": "function"
    },
    {
      "inputs": [],
      "name": "deadline",
      "outputs": [
        {
          "internalType": "uint256",
          "name": "",
          "type": "uint256"
        }
      ],
      "stateMutability": "view",
      "type": "function"
    },
    {
      "inputs": [],
      "name": "getContractBalance",
      "outputs": [
        {
          "internalType": "uint256",
          "name": "",
          "type": "uint256"
        }
      ],
      "stateMutability": "view",
      "type": "function"
    },
    {
      "inputs": [
        {
          "internalType": "uint256",
          "name": "_requestNo",
          "type": "uint256"
        }
      ],
      "name": "makePayment",
      "outputs": [],
      "stateMutability": "nonpayable",
      "type": "function"
    },
    {
      "inputs": [],
      "name": "manager",
      "outputs": [
        {
          "internalType": "address",
          "name": "",
          "type": "address"
        }
      ],
      "stateMutability": "view",
      "type": "function"
    },
    {
      "inputs": [],
      "name": "minimumContribution",
      "outputs": [
        {
          "internalType": "uint256",
          "name": "",
          "type": "uint256"
        }
      ],
      "stateMutability": "view",
      "type": "function"
    },
    {
      "inputs": [],
      "name": "noOfContributors",
      "outputs": [
        {
          "internalType": "uint256",
          "name": "",
          "type": "uint256"
        }
      ],
      "stateMutability": "view",
      "type": "function"
    },
    {
      "inputs": [],
      "name": "noOfRequests",
      "outputs": [
        {
          "internalType": "uint256",
          "name": "",
          "type": "uint256"
        }
      ],
      "stateMutability": "view",
      "type": "function"
    },
    {
      "inputs": [],
      "name": "refund",
      "outputs": [],
      "stateMutability": "nonpayable",
      "type": "function"
    },
    {
      "inputs": [
        {
          "internalType": "uint256",
          "name": "",
          "type": "uint256"
        }
      ],
      "name": "requests",
      "outputs": [
        {
          "internalType": "string",
          "name": "description",
          "type": "string"
        },
        {
          "internalType": "address payable",
          "name": "recipient",
          "type": "address"
        },
        {
          "internalType": "uint256",
          "name": "value",
          "type": "uint256"
        },
        {
          "internalType": "bool",
          "name": "Completed",
          "type": "bool"
        },
        {
          "internalType": "uint256",
          "name": "noOfVoters",
          "type": "uint256"
        }
      ],
      "stateMutability": "view",
      "type": "function"
    },
    {
      "inputs": [],
      "name": "target",
      "outputs": [
        {
          "internalType": "uint256",
          "name": "",
          "type": "uint256"
        }
      ],
      "stateMutability": "view",
      "type": "function"
    },
    {
      "inputs": [
        {
          "internalType": "uint256",
          "name": "_requestNo",
          "type": "uint256"
        }
      ],
      "name": "voteRequest",
      "outputs": [],
      "stateMutability": "nonpayable",
      "type": "function"
    }
  ],
  "bytecode": "0x60806040523480156200001157600080fd5b5060405162001a2138038062001a218339818101604052810190620000379190620000d6565b8160078190555080600481905550606460068190555033600260006101000a81548173ffffffffffffffffffffffffffffffffffffffff021916908373ffffffffffffffffffffffffffffffffffffffff16021790555050506200011d565b600080fd5b6000819050919050565b620000b0816200009b565b8114620000bc57600080fd5b50565b600081519050620000d081620000a5565b92915050565b60008060408385031215620000f057620000ef62000096565b5b60006200010085828601620000bf565b92505060206200011385828601620000bf565b9150509250929050565b6118f4806200012d6000396000f3fe6080604052600436106100e85760003560e01c80635114cb521161008a57806381d12c581161005957806381d12c581461029d578063937e09b1146102de578063c1f11b4c14610309578063d4b8399214610334576100e8565b80635114cb5214610207578063590e1ae3146102305780636f9fb98a146102475780637b3e5e7b14610272576100e8565b8063481c6a75116100c6578063481c6a751461017e5780634cb6f4a5146101a95780634e260f6f146101d257806350520b1f146101fd576100e8565b80631b16bb5c146100ed5780631f6d49421461011657806329dcb0cf14610153575b600080fd5b3480156100f957600080fd5b50610114600480360381019061010f9190610dcb565b61035f565b005b34801561012257600080fd5b5061013d60048036038101906101389190610e7d565b6104ae565b60405161014a9190610eb9565b60405180910390f35b34801561015f57600080fd5b506101686104c6565b6040516101759190610eb9565b60405180910390f35b34801561018a57600080fd5b506101936104cc565b6040516101a09190610ee3565b60405180910390f35b3480156101b557600080fd5b506101d060048036038101906101cb9190610efe565b6104f2565b005b3480156101de57600080fd5b506101e7610697565b6040516101f49190610eb9565b60405180910390f35b61020561069d565b005b34801561021357600080fd5b5061022e60048036038101906102299190610efe565b6107f4565b005b34801561023c57600080fd5b50610245610a1e565b005b34801561025357600080fd5b5061025c610bbd565b6040516102699190610eb9565b60405180910390f35b34801561027e57600080fd5b50610287610bc5565b6040516102949190610eb9565b60405180910390f35b3480156102a957600080fd5b506102c460048036038101906102bf9190610efe565b610bcb565b6040516102d5959493929190610fe5565b60405180910390f35b3480156102ea57600080fd5b506102f3610cb6565b6040516103009190610eb9565b60405180910390f35b34801561031557600080fd5b5061031e610cbc565b60405161032b9190610eb9565b60405180910390f35b34801561034057600080fd5b50610349610cc2565b6040516103569190610eb9565b60405180910390f35b600260009054906101000a900473ffffffffffffffffffffffffffffffffffffffff1673ffffffffffffffffffffffffffffffffffffffff163373ffffffffffffffffffffffffffffffffffffffff16146103ef576040517f08c379a00000000000000000000000000000000000000000000000000000000081526004016103e69061108b565b60405180910390fd5b600060016000600354815260200190815260200160002090506003600081548092919061041b906110da565b91905055508484826000019182610433929190611368565b50828160010160006101000a81548173ffffffffffffffffffffffffffffffffffffffff021916908373ffffffffffffffffffffffffffffffffffffffff16021790555081816002018190555060008160030160006101000a81548160ff021916908315150217905550600081600401819055505050505050565b60006020528060005260406000206000915090505481565b60045481565b600260009054906101000a900473ffffffffffffffffffffffffffffffffffffffff1681565b60008060003373ffffffffffffffffffffffffffffffffffffffff1673ffffffffffffffffffffffffffffffffffffffff1681526020019081526020016000205411610573576040517f08c379a000000000000000000000000000000000000000000000000000000000815260040161056a90611484565b60405180910390fd5b6000600160008381526020019081526020016000209050600015158160050160003373ffffffffffffffffffffffffffffffffffffffff1673ffffffffffffffffffffffffffffffffffffffff16815260200190815260200160002060009054906101000a900460ff1615151461061f576040517f08c379a0000000000000000000000000000000000000000000000000000000008152600401610616906114f0565b60405180910390fd5b60018160050160003373ffffffffffffffffffffffffffffffffffffffff1673ffffffffffffffffffffffffffffffffffffffff16815260200190815260200160002060006101000a81548160ff02191690831515021790555080600401600081548092919061068e906110da565b91905055505050565b60085481565b60045442106106e1576040517f08c379a00000000000000000000000000000000000000000000000000000000081526004016106d89061155c565b60405180910390fd5b6006543411610725576040517f08c379a000000000000000000000000000000000000000000000000000000000815260040161071c906115c8565b60405180910390fd5b60008060003373ffffffffffffffffffffffffffffffffffffffff1673ffffffffffffffffffffffffffffffffffffffff1681526020019081526020016000205403610784576008600081548092919061077e906110da565b91905055505b346000803373ffffffffffffffffffffffffffffffffffffffff1673ffffffffffffffffffffffffffffffffffffffff16815260200190815260200160002060008282546107d291906115e8565b9250508190555034600560008282546107eb91906115e8565b92505081905550565b600260009054906101000a900473ffffffffffffffffffffffffffffffffffffffff1673ffffffffffffffffffffffffffffffffffffffff163373ffffffffffffffffffffffffffffffffffffffff1614610884576040517f08c379a000000000000000000000000000000000000000000000000000000000815260040161087b9061108b565b60405180910390fd5b60075460055410156108cb576040517f08c379a00000000000000000000000000000000000000000000000000000000081526004016108c290611668565b60405180910390fd5b6000600160008381526020019081526020016000209050600015158160030160009054906101000a900460ff1615151461093a576040517f08c379a0000000000000000000000000000000000000000000000000000000008152600401610931906116d4565b60405180910390fd5b60026008546109499190611723565b81600401541161098e576040517f08c379a0000000000000000000000000000000000000000000000000000000008152600401610985906117a0565b60405180910390fd5b8060010160009054906101000a900473ffffffffffffffffffffffffffffffffffffffff1673ffffffffffffffffffffffffffffffffffffffff166108fc82600201549081150290604051600060405180830381858888f193505050501580156109fc573d6000803e3d6000fd5b5060018160030160006101000a81548160ff0219169083151502179055505050565b60045442118015610a325750600754600554105b610a71576040517f08c379a0000000000000000000000000000000000000000000000000000000008152600401610a6890611832565b60405180910390fd5b60008060003373ffffffffffffffffffffffffffffffffffffffff1673ffffffffffffffffffffffffffffffffffffffff1681526020019081526020016000205411610af2576040517f08c379a0000000000000000000000000000000000000000000000000000000008152600401610ae99061189e565b60405180910390fd5b3373ffffffffffffffffffffffffffffffffffffffff166108fc6000803373ffffffffffffffffffffffffffffffffffffffff1673ffffffffffffffffffffffffffffffffffffffff168152602001908152602001600020549081150290604051600060405180830381858888f19350505050158015610b76573d6000803e3d6000fd5b5060008060003373ffffffffffffffffffffffffffffffffffffffff1673ffffffffffffffffffffffffffffffffffffffff16815260200190815260200160002081905550565b600047905090565b60055481565b6001602052806000526040600020600091509050806000018054610bee9061118b565b80601f0160208091040260200160405190810160405280929190818152602001828054610c1a9061118b565b8015610c675780601f10610c3c57610100808354040283529160200191610c67565b820191906000526020600020905b815481529060010190602001808311610c4a57829003601f168201915b5050505050908060010160009054906101000a900473ffffffffffffffffffffffffffffffffffffffff16908060020154908060030160009054906101000a900460ff16908060040154905085565b60065481565b60035481565b60075481565b600080fd5b600080fd5b600080fd5b600080fd5b600080fd5b60008083601f840112610cf757610cf6610cd2565b5b8235905067ffffffffffffffff811115610d1457610d13610cd7565b5b602083019150836001820283011115610d3057610d2f610cdc565b5b9250929050565b600073ffffffffffffffffffffffffffffffffffffffff82169050919050565b6000610d6282610d37565b9050919050565b610d7281610d57565b8114610d7d57600080fd5b50565b600081359050610d8f81610d69565b92915050565b6000819050919050565b610da881610d95565b8114610db357600080fd5b50565b600081359050610dc581610d9f565b92915050565b60008060008060608587031215610de557610de4610cc8565b5b600085013567ffffffffffffffff811115610e0357610e02610ccd565b5b610e0f87828801610ce1565b94509450506020610e2287828801610d80565b9250506040610e3387828801610db6565b91505092959194509250565b6000610e4a82610d37565b9050919050565b610e5a81610e3f565b8114610e6557600080fd5b50565b600081359050610e7781610e51565b92915050565b600060208284031215610e9357610e92610cc8565b5b6000610ea184828501610e68565b91505092915050565b610eb381610d95565b82525050565b6000602082019050610ece6000830184610eaa565b92915050565b610edd81610e3f565b82525050565b6000602082019050610ef86000830184610ed4565b92915050565b600060208284031215610f1457610f13610cc8565b5b6000610f2284828501610db6565b91505092915050565b600081519050919050565b600082825260208201905092915050565b60005b83811015610f65578082015181840152602081019050610f4a565b60008484015250505050565b6000601f19601f8301169050919050565b6000610f8d82610f2b565b610f978185610f36565b9350610fa7818560208601610f47565b610fb081610f71565b840191505092915050565b610fc481610d57565b82525050565b60008115159050919050565b610fdf81610fca565b82525050565b600060a0820190508181036000830152610fff8188610f82565b905061100e6020830187610fbb565b61101b6040830186610eaa565b6110286060830185610fd6565b6110356080830184610eaa565b9695505050505050565b7f596f7520617265206e6f7420746865206d616e61676572000000000000000000600082015250565b6000611075601783610f36565b91506110808261103f565b602082019050919050565b600060208201905081810360008301526110a481611068565b9050919050565b7f4e487b7100000000000000000000000000000000000000000000000000000000600052601160045260246000fd5b60006110e582610d95565b91507fffffffffffffffffffffffffffffffffffffffffffffffffffffffffffffffff8203611117576111166110ab565b5b600182019050919050565b600082905092915050565b7f4e487b7100000000000000000000000000000000000000000000000000000000600052604160045260246000fd5b7f4e487b7100000000000000000000000000000000000000000000000000000000600052602260045260246000fd5b600060028204905060018216806111a357607f821691505b6020821081036111b6576111b561115c565b5b50919050565b60008190508160005260206000209050919050565b60006020601f8301049050919050565b600082821b905092915050565b60006008830261121e7fffffffffffffffffffffffffffffffffffffffffffffffffffffffffffffffff826111e1565b61122886836111e1565b95508019841693508086168417925050509392505050565b6000819050919050565b600061126561126061125b84610d95565b611240565b610d95565b9050919050565b6000819050919050565b61127f8361124a565b61129361128b8261126c565b8484546111ee565b825550505050565b600090565b6112a861129b565b6112b3818484611276565b505050565b5b818110156112d7576112cc6000826112a0565b6001810190506112b9565b5050565b601f82111561131c576112ed816111bc565b6112f6846111d1565b81016020851015611305578190505b611319611311856111d1565b8301826112b8565b50505b505050565b600082821c905092915050565b600061133f60001984600802611321565b1980831691505092915050565b6000611358838361132e565b9150826002028217905092915050565b6113728383611122565b67ffffffffffffffff81111561138b5761138a61112d565b5b611395825461118b565b6113a08282856112db565b6000601f8311600181146113cf57600084156113bd578287013590505b6113c7858261134c565b86555061142f565b601f1984166113dd866111bc565b60005b82811015611405578489013582556001820191506020850194506020810190506113e0565b86831015611422578489013561141e601f89168261132e565b8355505b6001600288020188555050505b50505050505050565b7f596f7520617265206e6f74206120636f6e747972696275746f72000000000000600082015250565b600061146e601a83610f36565b915061147982611438565b602082019050919050565b6000602082019050818103600083015261149d81611461565b9050919050565b7f596f75206861766520616c726561647920766f74656400000000000000000000600082015250565b60006114da601683610f36565b91506114e5826114a4565b602082019050919050565b60006020820190508181036000830152611509816114cd565b9050919050565b7f446561646c696e65206861732070617373656400000000000000000000000000600082015250565b6000611546601383610f36565b915061155182611510565b602082019050919050565b6000602082019050818103600083015261157581611539565b9050919050565b7f4d696e696d756d20636f6e747269627574696f6e206973203130302077656900600082015250565b60006115b2601f83610f36565b91506115bd8261157c565b602082019050919050565b600060208201905081810360008301526115e1816115a5565b9050919050565b60006115f382610d95565b91506115fe83610d95565b9250828201905080821115611616576116156110ab565b5b92915050565b7f546172676574206973206e6f7420726561636865640000000000000000000000600082015250565b6000611652601583610f36565b915061165d8261161c565b602082019050919050565b6000602082019050818103600083015261168181611645565b9050919050565b7f546865207265717565737420686173206265656e20636f6d706c657465640000600082015250565b60006116be601e83610f36565b91506116c982611688565b602082019050919050565b600060208201905081810360008301526116ed816116b1565b9050919050565b7f4e487b7100000000000000000000000000000000000000000000000000000000600052601260045260246000fd5b600061172e82610d95565b915061173983610d95565b925082611749576117486116f4565b5b828204905092915050565b7f4d616a6f72697479206e6f742072656163686564000000000000000000000000600082015250565b600061178a601483610f36565b915061179582611754565b602082019050919050565b600060208201905081810360008301526117b98161177d565b9050919050565b7f596f7520617265206e6f7420656c696769626c6520666f72206120726566756e60008201527f6400000000000000000000000000000000000000000000000000000000000000602082015250565b600061181c602183610f36565b9150611827826117c0565b604082019050919050565b6000602082019050818103600083015261184b8161180f565b9050919050565b7f596f7520617265206e6f74206120636f6e7472696275746f7200000000000000600082015250565b6000611888601983610f36565b915061189382611852565b602082019050919050565b600060208201905081810360008301526118b78161187b565b905091905056fea26469706673582212204e6ab0479b3fc3bc6ea924d1b03210f68e3b90dbe2d1b319cf6c8d1fb4a7d8ef64736f6c63430008180033",
  "linkReferences": {},
  "deployedLinkReferences": {}
}